{
    "_format": "hh-sol-artifact-1",
    "contractName": "BoilerplateLending",
    "sourceName": "contracts/BoilerplateLending.sol",
    "abi": [
        {
            "inputs": [],
            "stateMutability": "nonpayable",
            "type": "constructor"
        },
        {
            "inputs": [
                {
                    "internalType": "contract ISuperToken",
                    "name": "_asset",
                    "type": "address"
                },
                {
                    "internalType": "uint256",
                    "name": "_amount",
                    "type": "uint256"
                },
                {
                    "internalType": "contract ISuperToken",
                    "name": "_borrowedAsset",
                    "type": "address"
                },
                {
                    "internalType": "uint256",
                    "name": "_amountBorrowed",
                    "type": "uint256"
                }
            ],
            "name": "borrow",
            "outputs": [],
            "stateMutability": "nonpayable",
            "type": "function"
        },
        {
            "inputs": [
                {
                    "internalType": "uint256",
                    "name": "_index",
                    "type": "uint256"
                }
            ],
            "name": "checkLiquidation",
            "outputs": [
                {
                    "internalType": "bool",
                    "name": "isLiquidatable",
                    "type": "bool"
                }
            ],
            "stateMutability": "view",
            "type": "function"
        },
        {
            "inputs": [
                {
                    "internalType": "contract ISuperToken",
                    "name": "_token",
                    "type": "address"
                }
            ],
            "name": "checkSpecificPrice",
            "outputs": [
                {
                    "internalType": "uint256",
                    "name": "",
                    "type": "uint256"
                }
            ],
            "stateMutability": "view",
            "type": "function"
        },
        {
            "inputs": [
                {
                    "internalType": "uint256",
                    "name": "_amount",
                    "type": "uint256"
                }
            ],
            "name": "fund",
            "outputs": [],
            "stateMutability": "nonpayable",
            "type": "function"
        },
        {
            "inputs": [
                {
                    "internalType": "uint256",
                    "name": "_loanNumber",
                    "type": "uint256"
                }
            ],
            "name": "liquidate",
            "outputs": [
                {
                    "internalType": "bool",
                    "name": "",
                    "type": "bool"
                }
            ],
            "stateMutability": "nonpayable",
            "type": "function"
        },
        {
            "inputs": [],
            "name": "takeOutCollateral",
            "outputs": [],
            "stateMutability": "nonpayable",
            "type": "function"
        }
    ],
    "bytecode": "0x6080604052600060125534801561001557600080fd5b50739326bfa02add2366b30bacb125260af6410313316000806101000a81548173ffffffffffffffffffffffffffffffffffffffff021916908373ffffffffffffffffffffffffffffffffffffffff16021790555073777a68032a88e5a84678a77af2cd65a7b3c0775a600160006101000a81548173ffffffffffffffffffffffffffffffffffffffff021916908373ffffffffffffffffffffffffffffffffffffffff160217905550739211c6b3bf41a10f78539810cf5c64e1bb78ec60600260006101000a81548173ffffffffffffffffffffffffffffffffffffffff021916908373ffffffffffffffffffffffffffffffffffffffff160217905550732ca5a90d34ca333661083f89d831f757a9a50148600360006101000a81548173ffffffffffffffffffffffffffffffffffffffff021916908373ffffffffffffffffffffffffffffffffffffffff16021790555073dd5462a7db7856c9128bc77bd65c2919ee23c6e1600460006101000a81548173ffffffffffffffffffffffffffffffffffffffff021916908373ffffffffffffffffffffffffffffffffffffffff16021790555073e3cb950cb164a31c66e32c320a800d477019dcff600560006101000a81548173ffffffffffffffffffffffffffffffffffffffff021916908373ffffffffffffffffffffffffffffffffffffffff1602179055507325b5cd2e6ebaedaa5e21d0ecf25a567ee9704aa7600660006101000a81548173ffffffffffffffffffffffffffffffffffffffff021916908373ffffffffffffffffffffffffffffffffffffffff16021790555073b20200908d60f1d7bc68594f677bc15070a87504600760006101000a81548173ffffffffffffffffffffffffffffffffffffffff021916908373ffffffffffffffffffffffffffffffffffffffff160217905550606e60096000600460009054906101000a900473ffffffffffffffffffffffffffffffffffffffff1673ffffffffffffffffffffffffffffffffffffffff1673ffffffffffffffffffffffffffffffffffffffff16815260200190815260200160002081905550606e60096000600560009054906101000a900473ffffffffffffffffffffffffffffffffffffffff1673ffffffffffffffffffffffffffffffffffffffff1673ffffffffffffffffffffffffffffffffffffffff16815260200190815260200160002081905550606e60096000600660009054906101000a900473ffffffffffffffffffffffffffffffffffffffff1673ffffffffffffffffffffffffffffffffffffffff1673ffffffffffffffffffffffffffffffffffffffff16815260200190815260200160002081905550606e60096000600760009054906101000a900473ffffffffffffffffffffffffffffffffffffffff1673ffffffffffffffffffffffffffffffffffffffff1673ffffffffffffffffffffffffffffffffffffffff1681526020019081526020016000208190555060008054906101000a900473ffffffffffffffffffffffffffffffffffffffff16600a6000600460009054906101000a900473ffffffffffffffffffffffffffffffffffffffff1673ffffffffffffffffffffffffffffffffffffffff1673ffffffffffffffffffffffffffffffffffffffff16815260200190815260200160002060006101000a81548173ffffffffffffffffffffffffffffffffffffffff021916908373ffffffffffffffffffffffffffffffffffffffff160217905550600160009054906101000a900473ffffffffffffffffffffffffffffffffffffffff16600a6000600560009054906101000a900473ffffffffffffffffffffffffffffffffffffffff1673ffffffffffffffffffffffffffffffffffffffff1673ffffffffffffffffffffffffffffffffffffffff16815260200190815260200160002060006101000a81548173ffffffffffffffffffffffffffffffffffffffff021916908373ffffffffffffffffffffffffffffffffffffffff160217905550600260009054906101000a900473ffffffffffffffffffffffffffffffffffffffff16600a6000600660009054906101000a900473ffffffffffffffffffffffffffffffffffffffff1673ffffffffffffffffffffffffffffffffffffffff1673ffffffffffffffffffffffffffffffffffffffff16815260200190815260200160002060006101000a81548173ffffffffffffffffffffffffffffffffffffffff021916908373ffffffffffffffffffffffffffffffffffffffff160217905550600360009054906101000a900473ffffffffffffffffffffffffffffffffffffffff16600a6000600760009054906101000a900473ffffffffffffffffffffffffffffffffffffffff1673ffffffffffffffffffffffffffffffffffffffff1673ffffffffffffffffffffffffffffffffffffffff16815260200190815260200160002060006101000a81548173ffffffffffffffffffffffffffffffffffffffff021916908373ffffffffffffffffffffffffffffffffffffffff16021790555061249f8061076e6000396000f3fe608060405234801561001057600080fd5b50600436106100625760003560e01c8063415f1240146100675780636c9694931461009757806376bff22d146100a1578063b86f6aef146100d1578063ca1d209d14610101578063d02805391461011d575b600080fd5b610081600480360381019061007c91906118e8565b610139565b60405161008e9190611c19565b60405180910390f35b61009f6104d8565b005b6100bb60048036038101906100b69190611854565b610a81565b6040516100c89190611d74565b60405180910390f35b6100eb60048036038101906100e691906118e8565b610c13565b6040516100f89190611c19565b60405180910390f35b61011b600480360381019061011691906118e8565b610da4565b005b61013760048036038101906101329190611881565b611015565b005b600080339050600061014a84610c13565b90506001151581151514610193576040517f08c379a000000000000000000000000000000000000000000000000000000000815260040161018a90611c74565b60405180910390fd5b600060696064601187815481106101ad576101ac612120565b5b9060005260206000209060050201600101546101c99190611f98565b6101d39190611df6565b905080601186815481106101ea576101e9612120565b5b906000526020600020906005020160030160009054906101000a900473ffffffffffffffffffffffffffffffffffffffff1673ffffffffffffffffffffffffffffffffffffffff166370a08231856040518263ffffffff1660e01b81526004016102549190611b75565b60206040518083038186803b15801561026c57600080fd5b505afa158015610280573d6000803e3d6000fd5b505050506040513d601f19601f820116820180604052508101906102a49190611915565b10156102e5576040517f08c379a00000000000000000000000000000000000000000000000000000000081526004016102dc90611cd4565b60405180910390fd5b80601186815481106102fa576102f9612120565b5b906000526020600020906005020160030160009054906101000a900473ffffffffffffffffffffffffffffffffffffffff1673ffffffffffffffffffffffffffffffffffffffff1663dd62ed3e85306040518363ffffffff1660e01b8152600401610366929190611b90565b60206040518083038186803b15801561037e57600080fd5b505afa158015610392573d6000803e3d6000fd5b505050506040513d601f19601f820116820180604052508101906103b69190611915565b10156103f7576040517f08c379a00000000000000000000000000000000000000000000000000000000081526004016103ee90611c54565b60405180910390fd5b6011858154811061040b5761040a612120565b5b906000526020600020906005020160030160009054906101000a900473ffffffffffffffffffffffffffffffffffffffff1673ffffffffffffffffffffffffffffffffffffffff166323b872dd8430846040518463ffffffff1660e01b815260040161047993929190611bb9565b602060405180830381600087803b15801561049357600080fd5b505af11580156104a7573d6000803e3d6000fd5b505050506040513d601f19601f820116820180604052508101906104cb9190611827565b5060019350505050919050565b60003390506000601060003373ffffffffffffffffffffffffffffffffffffffff1673ffffffffffffffffffffffffffffffffffffffff1681526020019081526020016000205490506011818154811061053557610534612120565b5b9060005260206000209060050201600101546011828154811061055b5761055a612120565b5b906000526020600020906005020160030160009054906101000a900473ffffffffffffffffffffffffffffffffffffffff1673ffffffffffffffffffffffffffffffffffffffff166370a08231336040518263ffffffff1660e01b81526004016105c59190611b75565b60206040518083038186803b1580156105dd57600080fd5b505afa1580156105f1573d6000803e3d6000fd5b505050506040513d601f19601f820116820180604052508101906106159190611915565b1015801561071557506011818154811061063257610631612120565b5b9060005260206000209060050201600001546011828154811061065857610657612120565b5b906000526020600020906005020160020160009054906101000a900473ffffffffffffffffffffffffffffffffffffffff1673ffffffffffffffffffffffffffffffffffffffff166370a08231336040518263ffffffff1660e01b81526004016106c29190611b75565b60206040518083038186803b1580156106da57600080fd5b505afa1580156106ee573d6000803e3d6000fd5b505050506040513d601f19601f820116820180604052508101906107129190611915565b10155b610754576040517f08c379a000000000000000000000000000000000000000000000000000000000815260040161074b90611d14565b60405180910390fd5b6011818154811061076857610767612120565b5b9060005260206000209060050201600101546011828154811061078e5761078d612120565b5b906000526020600020906005020160030160009054906101000a900473ffffffffffffffffffffffffffffffffffffffff1673ffffffffffffffffffffffffffffffffffffffff1663dd62ed3e84306040518363ffffffff1660e01b81526004016107fa929190611b90565b60206040518083038186803b15801561081257600080fd5b505afa158015610826573d6000803e3d6000fd5b505050506040513d601f19601f8201168201806040525081019061084a9190611915565b101561088b576040517f08c379a000000000000000000000000000000000000000000000000000000000815260040161088290611c34565b60405180910390fd5b6011818154811061089f5761089e612120565b5b906000526020600020906005020160030160009054906101000a900473ffffffffffffffffffffffffffffffffffffffff1673ffffffffffffffffffffffffffffffffffffffff166323b872dd83306011858154811061090257610901612120565b5b9060005260206000209060050201600101546040518463ffffffff1660e01b815260040161093293929190611bb9565b602060405180830381600087803b15801561094c57600080fd5b505af1158015610960573d6000803e3d6000fd5b505050506040513d601f19601f820116820180604052508101906109849190611827565b506011818154811061099957610998612120565b5b906000526020600020906005020160020160009054906101000a900473ffffffffffffffffffffffffffffffffffffffff1673ffffffffffffffffffffffffffffffffffffffff1663a9059cbb83601184815481106109fb576109fa612120565b5b9060005260206000209060050201600001546040518363ffffffff1660e01b8152600401610a2a929190611bf0565b602060405180830381600087803b158015610a4457600080fd5b505af1158015610a58573d6000803e3d6000fd5b505050506040513d601f19601f82011682018060405250810190610a7c9190611827565b505050565b600080600a60008473ffffffffffffffffffffffffffffffffffffffff1673ffffffffffffffffffffffffffffffffffffffff16815260200190815260200160002060009054906101000a900473ffffffffffffffffffffffffffffffffffffffff16905060008173ffffffffffffffffffffffffffffffffffffffff1663feaf968c6040518163ffffffff1660e01b815260040160a06040518083038186803b158015610b2e57600080fd5b505afa158015610b42573d6000803e3d6000fd5b505050506040513d601f19601f82011682018060405250810190610b669190611942565b50505091505060008273ffffffffffffffffffffffffffffffffffffffff1663313ce5676040518163ffffffff1660e01b815260040160206040518083038186803b158015610bb457600080fd5b505afa158015610bc8573d6000803e3d6000fd5b505050506040513d601f19601f82011682018060405250810190610bec91906119bd565b90508060ff16600a610bfe9190611e7a565b82610c099190611df6565b9350505050919050565b600060646009600060118581548110610c2f57610c2e612120565b5b906000526020600020906005020160030160009054906101000a900473ffffffffffffffffffffffffffffffffffffffff1673ffffffffffffffffffffffffffffffffffffffff1673ffffffffffffffffffffffffffffffffffffffff16815260200190815260200160002054610ca69190611df6565b60118381548110610cba57610cb9612120565b5b906000526020600020906005020160000154610cd69190611f98565b600b600060118581548110610cee57610ced612120565b5b906000526020600020906005020160030160009054906101000a900473ffffffffffffffffffffffffffffffffffffffff1673ffffffffffffffffffffffffffffffffffffffff1673ffffffffffffffffffffffffffffffffffffffff1681526020019081526020016000205460118481548110610d6f57610d6e612120565b5b906000526020600020906005020160010154610d8b9190611f98565b1115610d9a5760019050610d9f565b600090505b919050565b60003390506000601060003373ffffffffffffffffffffffffffffffffffffffff1673ffffffffffffffffffffffffffffffffffffffff1681526020019081526020016000205490508260118281548110610e0257610e01612120565b5b906000526020600020906005020160020160009054906101000a900473ffffffffffffffffffffffffffffffffffffffff1673ffffffffffffffffffffffffffffffffffffffff1663dd62ed3e84306040518363ffffffff1660e01b8152600401610e6e929190611b90565b60206040518083038186803b158015610e8657600080fd5b505afa158015610e9a573d6000803e3d6000fd5b505050506040513d601f19601f82011682018060405250810190610ebe9190611915565b1015610eff576040517f08c379a0000000000000000000000000000000000000000000000000000000008152600401610ef690611c34565b60405180910390fd5b60118181548110610f1357610f12612120565b5b906000526020600020906005020160020160009054906101000a900473ffffffffffffffffffffffffffffffffffffffff1673ffffffffffffffffffffffffffffffffffffffff166323b872dd8330866040518463ffffffff1660e01b8152600401610f8193929190611bb9565b602060405180830381600087803b158015610f9b57600080fd5b505af1158015610faf573d6000803e3d6000fd5b505050506040513d601f19601f82011682018060405250810190610fd39190611827565b508260118281548110610fe957610fe8612120565b5b906000526020600020906005020160000160008282546110099190611da0565b92505081905550505050565b60003390508273ffffffffffffffffffffffffffffffffffffffff168573ffffffffffffffffffffffffffffffffffffffff161415611089576040517f08c379a000000000000000000000000000000000000000000000000000000000815260040161108090611cb4565b60405180910390fd5b6000600b60008773ffffffffffffffffffffffffffffffffffffffff1673ffffffffffffffffffffffffffffffffffffffff168152602001908152602001600020541415801561111957506000600b60008573ffffffffffffffffffffffffffffffffffffffff1673ffffffffffffffffffffffffffffffffffffffff1681526020019081526020016000205414155b611158576040517f08c379a000000000000000000000000000000000000000000000000000000000815260040161114f90611d54565b60405180910390fd5b838573ffffffffffffffffffffffffffffffffffffffff166370a08231336040518263ffffffff1660e01b81526004016111929190611b75565b60206040518083038186803b1580156111aa57600080fd5b505afa1580156111be573d6000803e3d6000fd5b505050506040513d601f19601f820116820180604052508101906111e29190611915565b1015611223576040517f08c379a000000000000000000000000000000000000000000000000000000000815260040161121a90611d34565b60405180910390fd5b818373ffffffffffffffffffffffffffffffffffffffff166370a08231306040518263ffffffff1660e01b815260040161125d9190611b75565b60206040518083038186803b15801561127557600080fd5b505afa158015611289573d6000803e3d6000fd5b505050506040513d601f19601f820116820180604052508101906112ad9190611915565b10156112ee576040517f08c379a00000000000000000000000000000000000000000000000000000000081526004016112e590611c94565b60405180910390fd5b60006112f986610a81565b9050600061130685610a81565b9050600086836113169190611f98565b9050600085836113269190611f98565b9050816064600960008a73ffffffffffffffffffffffffffffffffffffffff1673ffffffffffffffffffffffffffffffffffffffff16815260200190815260200160002054836113769190611f98565b6113809190611df6565b10156113c1576040517f08c379a00000000000000000000000000000000000000000000000000000000081526004016113b890611cf4565b60405180910390fd5b878973ffffffffffffffffffffffffffffffffffffffff1663dd62ed3e87306040518363ffffffff1660e01b81526004016113fd929190611b90565b60206040518083038186803b15801561141557600080fd5b505afa158015611429573d6000803e3d6000fd5b505050506040513d601f19601f8201168201806040525081019061144d9190611915565b101561148e576040517f08c379a000000000000000000000000000000000000000000000000000000000815260040161148590611c34565b60405180910390fd5b8873ffffffffffffffffffffffffffffffffffffffff166323b872dd86308b6040518463ffffffff1660e01b81526004016114cb93929190611bb9565b602060405180830381600087803b1580156114e557600080fd5b505af11580156114f9573d6000803e3d6000fd5b505050506040513d601f19601f8201168201806040525081019061151d9190611827565b508873ffffffffffffffffffffffffffffffffffffffff1663a9059cbb86886040518363ffffffff1660e01b8152600401611559929190611bf0565b602060405180830381600087803b15801561157357600080fd5b505af1158015611587573d6000803e3d6000fd5b505050506040513d601f19601f820116820180604052508101906115ab9190611827565b5060116040518060a001604052808a81526020018881526020018b73ffffffffffffffffffffffffffffffffffffffff1681526020018973ffffffffffffffffffffffffffffffffffffffff1681526020013373ffffffffffffffffffffffffffffffffffffffff168152509080600181540180825580915050600190039060005260206000209060050201600090919091909150600082015181600001556020820151816001015560408201518160020160006101000a81548173ffffffffffffffffffffffffffffffffffffffff021916908373ffffffffffffffffffffffffffffffffffffffff16021790555060608201518160030160006101000a81548173ffffffffffffffffffffffffffffffffffffffff021916908373ffffffffffffffffffffffffffffffffffffffff16021790555060808201518160040160006101000a81548173ffffffffffffffffffffffffffffffffffffffff021916908373ffffffffffffffffffffffffffffffffffffffff1602179055505050601254601060003373ffffffffffffffffffffffffffffffffffffffff1673ffffffffffffffffffffffffffffffffffffffff168152602001908152602001600020819055506012600081548092919061178490612079565b9190505550505050505050505050565b6000815190506117a3816123df565b92915050565b6000813590506117b8816123f6565b92915050565b6000815190506117cd8161240d565b92915050565b6000813590506117e281612424565b92915050565b6000815190506117f781612424565b92915050565b60008151905061180c81612452565b92915050565b6000815190506118218161243b565b92915050565b60006020828403121561183d5761183c61214f565b5b600061184b84828501611794565b91505092915050565b60006020828403121561186a5761186961214f565b5b6000611878848285016117a9565b91505092915050565b6000806000806080858703121561189b5761189a61214f565b5b60006118a9878288016117a9565b94505060206118ba878288016117d3565b93505060406118cb878288016117a9565b92505060606118dc878288016117d3565b91505092959194509250565b6000602082840312156118fe576118fd61214f565b5b600061190c848285016117d3565b91505092915050565b60006020828403121561192b5761192a61214f565b5b6000611939848285016117e8565b91505092915050565b600080600080600060a0868803121561195e5761195d61214f565b5b600061196c888289016117fd565b955050602061197d888289016117be565b945050604061198e888289016117e8565b935050606061199f888289016117e8565b92505060806119b0888289016117fd565b9150509295509295909350565b6000602082840312156119d3576119d261214f565b5b60006119e184828501611812565b91505092915050565b6119f381611ff2565b82525050565b611a0281612004565b82525050565b6000611a15602383611d8f565b9150611a2082612161565b604082019050919050565b6000611a38602a83611d8f565b9150611a43826121b0565b604082019050919050565b6000611a5b603983611d8f565b9150611a66826121ff565b604082019050919050565b6000611a7e602183611d8f565b9150611a898261224e565b604082019050919050565b6000611aa1602c83611d8f565b9150611aac8261229d565b604082019050919050565b6000611ac4601a83611d8f565b9150611acf826122ec565b602082019050919050565b6000611ae7601e83611d8f565b9150611af282612315565b602082019050919050565b6000611b0a602a83611d8f565b9150611b158261233e565b604082019050919050565b6000611b2d601b83611d8f565b9150611b388261238d565b602082019050919050565b6000611b50601083611d8f565b9150611b5b826123b6565b602082019050919050565b611b6f8161204c565b82525050565b6000602082019050611b8a60008301846119ea565b92915050565b6000604082019050611ba560008301856119ea565b611bb260208301846119ea565b9392505050565b6000606082019050611bce60008301866119ea565b611bdb60208301856119ea565b611be86040830184611b66565b949350505050565b6000604082019050611c0560008301856119ea565b611c126020830184611b66565b9392505050565b6000602082019050611c2e60008301846119f9565b92915050565b60006020820190508181036000830152611c4d81611a08565b9050919050565b60006020820190508181036000830152611c6d81611a2b565b9050919050565b60006020820190508181036000830152611c8d81611a4e565b9050919050565b60006020820190508181036000830152611cad81611a71565b9050919050565b60006020820190508181036000830152611ccd81611a94565b9050919050565b60006020820190508181036000830152611ced81611ab7565b9050919050565b60006020820190508181036000830152611d0d81611ada565b9050919050565b60006020820190508181036000830152611d2d81611afd565b9050919050565b60006020820190508181036000830152611d4d81611b20565b9050919050565b60006020820190508181036000830152611d6d81611b43565b9050919050565b6000602082019050611d896000830184611b66565b92915050565b600082825260208201905092915050565b6000611dab8261204c565b9150611db68361204c565b9250827fffffffffffffffffffffffffffffffffffffffffffffffffffffffffffffffff03821115611deb57611dea6120c2565b5b828201905092915050565b6000611e018261204c565b9150611e0c8361204c565b925082611e1c57611e1b6120f1565b5b828204905092915050565b6000808291508390505b6001851115611e7157808604811115611e4d57611e4c6120c2565b5b6001851615611e5c5780820291505b8081029050611e6a85612154565b9450611e31565b94509492505050565b6000611e858261204c565b9150611e908361204c565b9250611ebd7fffffffffffffffffffffffffffffffffffffffffffffffffffffffffffffffff8484611ec5565b905092915050565b600082611ed55760019050611f91565b81611ee35760009050611f91565b8160018114611ef95760028114611f0357611f32565b6001915050611f91565b60ff841115611f1557611f146120c2565b5b8360020a915084821115611f2c57611f2b6120c2565b5b50611f91565b5060208310610133831016604e8410600b8410161715611f675782820a905083811115611f6257611f616120c2565b5b611f91565b611f748484846001611e27565b92509050818404811115611f8b57611f8a6120c2565b5b81810290505b9392505050565b6000611fa38261204c565b9150611fae8361204c565b9250817fffffffffffffffffffffffffffffffffffffffffffffffffffffffffffffffff0483118215151615611fe757611fe66120c2565b5b828202905092915050565b6000611ffd8261202c565b9050919050565b60008115159050919050565b600061201b82611ff2565b9050919050565b6000819050919050565b600073ffffffffffffffffffffffffffffffffffffffff82169050919050565b6000819050919050565b600060ff82169050919050565b600069ffffffffffffffffffff82169050919050565b60006120848261204c565b91507fffffffffffffffffffffffffffffffffffffffffffffffffffffffffffffffff8214156120b7576120b66120c2565b5b600182019050919050565b7f4e487b7100000000000000000000000000000000000000000000000000000000600052601160045260246000fd5b7f4e487b7100000000000000000000000000000000000000000000000000000000600052601260045260246000fd5b7f4e487b7100000000000000000000000000000000000000000000000000000000600052603260045260246000fd5b600080fd5b60008160011c9050919050565b7f7765206e65656420617070726f76616c20746f2075736520796f757220746f6b60008201527f656e730000000000000000000000000000000000000000000000000000000000602082015250565b7f776520646f6e74206861766520706572736d697373696f6e20746f207573652060008201527f796f75722066756e647300000000000000000000000000000000000000000000602082015250565b7f7768792061726520796f7520747279696e6720746f206c69717569646174652060008201527f61206c6f616e2074686174206973206865616c7468793f3f3f00000000000000602082015250565b7f776520646f6e74206861766520656e6f756768206f66207468617420746f6b6560008201527f6e00000000000000000000000000000000000000000000000000000000000000602082015250565b7f796f752063616e277420626f72726f77207468652073616d6520746f6b656e2c60008201527f2073696c6c7920676f6f73650000000000000000000000000000000000000000602082015250565b7f796f7520646f6e74206861766520656e6f756768206d6f6e6579000000000000600082015250565b7f796f752073686f756c6420616464206d6f726520636f6c6c61746572616c0000600082015250565b7f7765206d6179206f72206d6179206e6f74206861766520676f6e6520696e736f60008201527f6c76656e74206c6d616f00000000000000000000000000000000000000000000602082015250565b7f796f7520646f6e74206861766520656e6f75676820746f6b656e730000000000600082015250565b7f6e6f742076616c696420746f6b656e7300000000000000000000000000000000600082015250565b6123e881612004565b81146123f357600080fd5b50565b6123ff81612010565b811461240a57600080fd5b50565b61241681612022565b811461242157600080fd5b50565b61242d8161204c565b811461243857600080fd5b50565b61244481612056565b811461244f57600080fd5b50565b61245b81612063565b811461246657600080fd5b5056fea2646970667358221220938c1b22e94aa183a126ee698ff6b205685d0d0503ccd1e7845034fa3a9680b164736f6c63430008060033",
    "linkReferences": {},
    "deployedLinkReferences": {}
}