{
  "_format": "hh-sol-artifact-1",
  "contractName": "BoilerplateLending",
  "sourceName": "contracts/BoilerplateLending.sol",
  "abi": [
    {
      "inputs": [],
      "stateMutability": "nonpayable",
      "type": "constructor"
    },
    {
      "inputs": [
        {
          "internalType": "contract ISuperToken",
          "name": "_asset",
          "type": "address"
        },
        {
          "internalType": "uint256",
          "name": "_amount",
          "type": "uint256"
        },
        {
          "internalType": "contract ISuperToken",
          "name": "_borrowedAsset",
          "type": "address"
        },
        {
          "internalType": "uint256",
          "name": "_amountBorrowed",
          "type": "uint256"
        }
      ],
      "name": "borrow",
      "outputs": [],
      "stateMutability": "nonpayable",
      "type": "function"
    },
    {
      "inputs": [
        {
          "internalType": "uint256",
          "name": "_index",
          "type": "uint256"
        }
      ],
      "name": "checkLiquidation",
      "outputs": [
        {
          "internalType": "bool",
          "name": "isLiquidatable",
          "type": "bool"
        }
      ],
      "stateMutability": "view",
      "type": "function"
    },
    {
      "inputs": [
        {
          "internalType": "contract ISuperToken",
          "name": "_token",
          "type": "address"
        }
      ],
      "name": "checkSpecificPrice",
      "outputs": [
        {
          "internalType": "uint256",
          "name": "",
          "type": "uint256"
        }
      ],
      "stateMutability": "view",
      "type": "function"
    },
    {
      "inputs": [
        {
          "internalType": "uint256",
          "name": "_amount",
          "type": "uint256"
        }
      ],
      "name": "fund",
      "outputs": [],
      "stateMutability": "nonpayable",
      "type": "function"
    },
    {
      "inputs": [
        {
          "internalType": "uint256",
          "name": "_loanNumber",
          "type": "uint256"
        }
      ],
      "name": "liquidate",
      "outputs": [
        {
          "internalType": "bool",
          "name": "",
          "type": "bool"
        }
      ],
      "stateMutability": "nonpayable",
      "type": "function"
    },
    {
      "inputs": [],
      "name": "takeOutCollateral",
      "outputs": [],
      "stateMutability": "nonpayable",
      "type": "function"
    }
  ],
  "bytecode": "0x6080604052600060115534801561001557600080fd5b50739326bfa02add2366b30bacb125260af6410313316000806101000a81548173ffffffffffffffffffffffffffffffffffffffff021916908373ffffffffffffffffffffffffffffffffffffffff16021790555073777a68032a88e5a84678a77af2cd65a7b3c0775a600160006101000a81548173ffffffffffffffffffffffffffffffffffffffff021916908373ffffffffffffffffffffffffffffffffffffffff160217905550739211c6b3bf41a10f78539810cf5c64e1bb78ec60600260006101000a81548173ffffffffffffffffffffffffffffffffffffffff021916908373ffffffffffffffffffffffffffffffffffffffff160217905550732ca5a90d34ca333661083f89d831f757a9a50148600360006101000a81548173ffffffffffffffffffffffffffffffffffffffff021916908373ffffffffffffffffffffffffffffffffffffffff16021790555073dd5462a7db7856c9128bc77bd65c2919ee23c6e1600460006101000a81548173ffffffffffffffffffffffffffffffffffffffff021916908373ffffffffffffffffffffffffffffffffffffffff16021790555073e3cb950cb164a31c66e32c320a800d477019dcff600560006101000a81548173ffffffffffffffffffffffffffffffffffffffff021916908373ffffffffffffffffffffffffffffffffffffffff1602179055507325b5cd2e6ebaedaa5e21d0ecf25a567ee9704aa7600660006101000a81548173ffffffffffffffffffffffffffffffffffffffff021916908373ffffffffffffffffffffffffffffffffffffffff16021790555073b20200908d60f1d7bc68594f677bc15070a87504600760006101000a81548173ffffffffffffffffffffffffffffffffffffffff021916908373ffffffffffffffffffffffffffffffffffffffff160217905550606e60096000600460009054906101000a900473ffffffffffffffffffffffffffffffffffffffff1673ffffffffffffffffffffffffffffffffffffffff1673ffffffffffffffffffffffffffffffffffffffff16815260200190815260200160002081905550606e60096000600560009054906101000a900473ffffffffffffffffffffffffffffffffffffffff1673ffffffffffffffffffffffffffffffffffffffff1673ffffffffffffffffffffffffffffffffffffffff16815260200190815260200160002081905550606e60096000600660009054906101000a900473ffffffffffffffffffffffffffffffffffffffff1673ffffffffffffffffffffffffffffffffffffffff1673ffffffffffffffffffffffffffffffffffffffff16815260200190815260200160002081905550606e60096000600760009054906101000a900473ffffffffffffffffffffffffffffffffffffffff1673ffffffffffffffffffffffffffffffffffffffff1673ffffffffffffffffffffffffffffffffffffffff1681526020019081526020016000208190555060008054906101000a900473ffffffffffffffffffffffffffffffffffffffff16600a6000600460009054906101000a900473ffffffffffffffffffffffffffffffffffffffff1673ffffffffffffffffffffffffffffffffffffffff1673ffffffffffffffffffffffffffffffffffffffff16815260200190815260200160002060006101000a81548173ffffffffffffffffffffffffffffffffffffffff021916908373ffffffffffffffffffffffffffffffffffffffff160217905550600160009054906101000a900473ffffffffffffffffffffffffffffffffffffffff16600a6000600560009054906101000a900473ffffffffffffffffffffffffffffffffffffffff1673ffffffffffffffffffffffffffffffffffffffff1673ffffffffffffffffffffffffffffffffffffffff16815260200190815260200160002060006101000a81548173ffffffffffffffffffffffffffffffffffffffff021916908373ffffffffffffffffffffffffffffffffffffffff160217905550600260009054906101000a900473ffffffffffffffffffffffffffffffffffffffff16600a6000600660009054906101000a900473ffffffffffffffffffffffffffffffffffffffff1673ffffffffffffffffffffffffffffffffffffffff1673ffffffffffffffffffffffffffffffffffffffff16815260200190815260200160002060006101000a81548173ffffffffffffffffffffffffffffffffffffffff021916908373ffffffffffffffffffffffffffffffffffffffff160217905550600360009054906101000a900473ffffffffffffffffffffffffffffffffffffffff16600a6000600760009054906101000a900473ffffffffffffffffffffffffffffffffffffffff1673ffffffffffffffffffffffffffffffffffffffff1673ffffffffffffffffffffffffffffffffffffffff16815260200190815260200160002060006101000a81548173ffffffffffffffffffffffffffffffffffffffff021916908373ffffffffffffffffffffffffffffffffffffffff1602179055506124cd8061076e6000396000f3fe608060405234801561001057600080fd5b50600436106100625760003560e01c8063415f1240146100675780636c9694931461009757806376bff22d146100a1578063b86f6aef146100d1578063ca1d209d14610101578063d02805391461011d575b600080fd5b610081600480360381019061007c9190611916565b610139565b60405161008e9190611c47565b60405180910390f35b61009f6104d8565b005b6100bb60048036038101906100b69190611882565b610a81565b6040516100c89190611da2565b60405180910390f35b6100eb60048036038101906100e69190611916565b610c13565b6040516100f89190611c47565b60405180910390f35b61011b60048036038101906101169190611916565b610dd2565b005b610137600480360381019061013291906118af565b611043565b005b600080339050600061014a84610c13565b90506001151581151514610193576040517f08c379a000000000000000000000000000000000000000000000000000000000815260040161018a90611ca2565b60405180910390fd5b600060696064601087815481106101ad576101ac61214e565b5b9060005260206000209060050201600101546101c99190611fc6565b6101d39190611e24565b905080601086815481106101ea576101e961214e565b5b906000526020600020906005020160030160009054906101000a900473ffffffffffffffffffffffffffffffffffffffff1673ffffffffffffffffffffffffffffffffffffffff166370a08231856040518263ffffffff1660e01b81526004016102549190611ba3565b60206040518083038186803b15801561026c57600080fd5b505afa158015610280573d6000803e3d6000fd5b505050506040513d601f19601f820116820180604052508101906102a49190611943565b10156102e5576040517f08c379a00000000000000000000000000000000000000000000000000000000081526004016102dc90611d02565b60405180910390fd5b80601086815481106102fa576102f961214e565b5b906000526020600020906005020160030160009054906101000a900473ffffffffffffffffffffffffffffffffffffffff1673ffffffffffffffffffffffffffffffffffffffff1663dd62ed3e85306040518363ffffffff1660e01b8152600401610366929190611bbe565b60206040518083038186803b15801561037e57600080fd5b505afa158015610392573d6000803e3d6000fd5b505050506040513d601f19601f820116820180604052508101906103b69190611943565b10156103f7576040517f08c379a00000000000000000000000000000000000000000000000000000000081526004016103ee90611c82565b60405180910390fd5b6010858154811061040b5761040a61214e565b5b906000526020600020906005020160030160009054906101000a900473ffffffffffffffffffffffffffffffffffffffff1673ffffffffffffffffffffffffffffffffffffffff166323b872dd8430846040518463ffffffff1660e01b815260040161047993929190611be7565b602060405180830381600087803b15801561049357600080fd5b505af11580156104a7573d6000803e3d6000fd5b505050506040513d601f19601f820116820180604052508101906104cb9190611855565b5060019350505050919050565b60003390506000600f60003373ffffffffffffffffffffffffffffffffffffffff1673ffffffffffffffffffffffffffffffffffffffff168152602001908152602001600020549050601081815481106105355761053461214e565b5b9060005260206000209060050201600101546010828154811061055b5761055a61214e565b5b906000526020600020906005020160030160009054906101000a900473ffffffffffffffffffffffffffffffffffffffff1673ffffffffffffffffffffffffffffffffffffffff166370a08231336040518263ffffffff1660e01b81526004016105c59190611ba3565b60206040518083038186803b1580156105dd57600080fd5b505afa1580156105f1573d6000803e3d6000fd5b505050506040513d601f19601f820116820180604052508101906106159190611943565b101580156107155750601081815481106106325761063161214e565b5b906000526020600020906005020160000154601082815481106106585761065761214e565b5b906000526020600020906005020160020160009054906101000a900473ffffffffffffffffffffffffffffffffffffffff1673ffffffffffffffffffffffffffffffffffffffff166370a08231336040518263ffffffff1660e01b81526004016106c29190611ba3565b60206040518083038186803b1580156106da57600080fd5b505afa1580156106ee573d6000803e3d6000fd5b505050506040513d601f19601f820116820180604052508101906107129190611943565b10155b610754576040517f08c379a000000000000000000000000000000000000000000000000000000000815260040161074b90611d42565b60405180910390fd5b601081815481106107685761076761214e565b5b9060005260206000209060050201600101546010828154811061078e5761078d61214e565b5b906000526020600020906005020160030160009054906101000a900473ffffffffffffffffffffffffffffffffffffffff1673ffffffffffffffffffffffffffffffffffffffff1663dd62ed3e84306040518363ffffffff1660e01b81526004016107fa929190611bbe565b60206040518083038186803b15801561081257600080fd5b505afa158015610826573d6000803e3d6000fd5b505050506040513d601f19601f8201168201806040525081019061084a9190611943565b101561088b576040517f08c379a000000000000000000000000000000000000000000000000000000000815260040161088290611c62565b60405180910390fd5b6010818154811061089f5761089e61214e565b5b906000526020600020906005020160030160009054906101000a900473ffffffffffffffffffffffffffffffffffffffff1673ffffffffffffffffffffffffffffffffffffffff166323b872dd8330601085815481106109025761090161214e565b5b9060005260206000209060050201600101546040518463ffffffff1660e01b815260040161093293929190611be7565b602060405180830381600087803b15801561094c57600080fd5b505af1158015610960573d6000803e3d6000fd5b505050506040513d601f19601f820116820180604052508101906109849190611855565b50601081815481106109995761099861214e565b5b906000526020600020906005020160020160009054906101000a900473ffffffffffffffffffffffffffffffffffffffff1673ffffffffffffffffffffffffffffffffffffffff1663a9059cbb83601084815481106109fb576109fa61214e565b5b9060005260206000209060050201600001546040518363ffffffff1660e01b8152600401610a2a929190611c1e565b602060405180830381600087803b158015610a4457600080fd5b505af1158015610a58573d6000803e3d6000fd5b505050506040513d601f19601f82011682018060405250810190610a7c9190611855565b505050565b600080600a60008473ffffffffffffffffffffffffffffffffffffffff1673ffffffffffffffffffffffffffffffffffffffff16815260200190815260200160002060009054906101000a900473ffffffffffffffffffffffffffffffffffffffff16905060008173ffffffffffffffffffffffffffffffffffffffff1663feaf968c6040518163ffffffff1660e01b815260040160a06040518083038186803b158015610b2e57600080fd5b505afa158015610b42573d6000803e3d6000fd5b505050506040513d601f19601f82011682018060405250810190610b669190611970565b50505091505060008273ffffffffffffffffffffffffffffffffffffffff1663313ce5676040518163ffffffff1660e01b815260040160206040518083038186803b158015610bb457600080fd5b505afa158015610bc8573d6000803e3d6000fd5b505050506040513d601f19601f82011682018060405250810190610bec91906119eb565b90508060ff16600a610bfe9190611ea8565b82610c099190611e24565b9350505050919050565b600080610c6460108481548110610c2d57610c2c61214e565b5b906000526020600020906005020160030160009054906101000a900473ffffffffffffffffffffffffffffffffffffffff16610a81565b90506000610cb660108581548110610c7f57610c7e61214e565b5b906000526020600020906005020160030160009054906101000a900473ffffffffffffffffffffffffffffffffffffffff16610a81565b905060646009600060108781548110610cd257610cd161214e565b5b906000526020600020906005020160030160009054906101000a900473ffffffffffffffffffffffffffffffffffffffff1673ffffffffffffffffffffffffffffffffffffffff1673ffffffffffffffffffffffffffffffffffffffff16815260200190815260200160002054610d499190611e24565b60108581548110610d5d57610d5c61214e565b5b90600052602060002090600502016000015482610d7a9190611fc6565b610d849190611fc6565b8260108681548110610d9957610d9861214e565b5b906000526020600020906005020160010154610db59190611fc6565b1115610dc657600192505050610dcd565b6000925050505b919050565b60003390506000600f60003373ffffffffffffffffffffffffffffffffffffffff1673ffffffffffffffffffffffffffffffffffffffff1681526020019081526020016000205490508260108281548110610e3057610e2f61214e565b5b906000526020600020906005020160020160009054906101000a900473ffffffffffffffffffffffffffffffffffffffff1673ffffffffffffffffffffffffffffffffffffffff1663dd62ed3e84306040518363ffffffff1660e01b8152600401610e9c929190611bbe565b60206040518083038186803b158015610eb457600080fd5b505afa158015610ec8573d6000803e3d6000fd5b505050506040513d601f19601f82011682018060405250810190610eec9190611943565b1015610f2d576040517f08c379a0000000000000000000000000000000000000000000000000000000008152600401610f2490611c62565b60405180910390fd5b60108181548110610f4157610f4061214e565b5b906000526020600020906005020160020160009054906101000a900473ffffffffffffffffffffffffffffffffffffffff1673ffffffffffffffffffffffffffffffffffffffff166323b872dd8330866040518463ffffffff1660e01b8152600401610faf93929190611be7565b602060405180830381600087803b158015610fc957600080fd5b505af1158015610fdd573d6000803e3d6000fd5b505050506040513d601f19601f820116820180604052508101906110019190611855565b5082601082815481106110175761101661214e565b5b906000526020600020906005020160000160008282546110379190611dce565b92505081905550505050565b60003390508273ffffffffffffffffffffffffffffffffffffffff168573ffffffffffffffffffffffffffffffffffffffff1614156110b7576040517f08c379a00000000000000000000000000000000000000000000000000000000081526004016110ae90611ce2565b60405180910390fd5b6000600960008773ffffffffffffffffffffffffffffffffffffffff1673ffffffffffffffffffffffffffffffffffffffff168152602001908152602001600020541415801561114757506000600960008573ffffffffffffffffffffffffffffffffffffffff1673ffffffffffffffffffffffffffffffffffffffff1681526020019081526020016000205414155b611186576040517f08c379a000000000000000000000000000000000000000000000000000000000815260040161117d90611d82565b60405180910390fd5b838573ffffffffffffffffffffffffffffffffffffffff166370a08231336040518263ffffffff1660e01b81526004016111c09190611ba3565b60206040518083038186803b1580156111d857600080fd5b505afa1580156111ec573d6000803e3d6000fd5b505050506040513d601f19601f820116820180604052508101906112109190611943565b1015611251576040517f08c379a000000000000000000000000000000000000000000000000000000000815260040161124890611d62565b60405180910390fd5b818373ffffffffffffffffffffffffffffffffffffffff166370a08231306040518263ffffffff1660e01b815260040161128b9190611ba3565b60206040518083038186803b1580156112a357600080fd5b505afa1580156112b7573d6000803e3d6000fd5b505050506040513d601f19601f820116820180604052508101906112db9190611943565b101561131c576040517f08c379a000000000000000000000000000000000000000000000000000000000815260040161131390611cc2565b60405180910390fd5b600061132786610a81565b9050600061133485610a81565b9050600086836113449190611fc6565b9050600085836113549190611fc6565b90506064600960008973ffffffffffffffffffffffffffffffffffffffff1673ffffffffffffffffffffffffffffffffffffffff168152602001908152602001600020546113a29190611e24565b816113ad9190611fc6565b8210156113ef576040517f08c379a00000000000000000000000000000000000000000000000000000000081526004016113e690611d22565b60405180910390fd5b878973ffffffffffffffffffffffffffffffffffffffff1663dd62ed3e87306040518363ffffffff1660e01b815260040161142b929190611bbe565b60206040518083038186803b15801561144357600080fd5b505afa158015611457573d6000803e3d6000fd5b505050506040513d601f19601f8201168201806040525081019061147b9190611943565b10156114bc576040517f08c379a00000000000000000000000000000000000000000000000000000000081526004016114b390611c62565b60405180910390fd5b8873ffffffffffffffffffffffffffffffffffffffff166323b872dd86308b6040518463ffffffff1660e01b81526004016114f993929190611be7565b602060405180830381600087803b15801561151357600080fd5b505af1158015611527573d6000803e3d6000fd5b505050506040513d601f19601f8201168201806040525081019061154b9190611855565b508673ffffffffffffffffffffffffffffffffffffffff1663a9059cbb86886040518363ffffffff1660e01b8152600401611587929190611c1e565b602060405180830381600087803b1580156115a157600080fd5b505af11580156115b5573d6000803e3d6000fd5b505050506040513d601f19601f820116820180604052508101906115d99190611855565b5060106040518060a001604052808a81526020018881526020018b73ffffffffffffffffffffffffffffffffffffffff1681526020018973ffffffffffffffffffffffffffffffffffffffff1681526020013373ffffffffffffffffffffffffffffffffffffffff168152509080600181540180825580915050600190039060005260206000209060050201600090919091909150600082015181600001556020820151816001015560408201518160020160006101000a81548173ffffffffffffffffffffffffffffffffffffffff021916908373ffffffffffffffffffffffffffffffffffffffff16021790555060608201518160030160006101000a81548173ffffffffffffffffffffffffffffffffffffffff021916908373ffffffffffffffffffffffffffffffffffffffff16021790555060808201518160040160006101000a81548173ffffffffffffffffffffffffffffffffffffffff021916908373ffffffffffffffffffffffffffffffffffffffff1602179055505050601154600f60003373ffffffffffffffffffffffffffffffffffffffff1673ffffffffffffffffffffffffffffffffffffffff16815260200190815260200160002081905550601160008154809291906117b2906120a7565b9190505550505050505050505050565b6000815190506117d18161240d565b92915050565b6000813590506117e681612424565b92915050565b6000815190506117fb8161243b565b92915050565b60008135905061181081612452565b92915050565b60008151905061182581612452565b92915050565b60008151905061183a81612480565b92915050565b60008151905061184f81612469565b92915050565b60006020828403121561186b5761186a61217d565b5b6000611879848285016117c2565b91505092915050565b6000602082840312156118985761189761217d565b5b60006118a6848285016117d7565b91505092915050565b600080600080608085870312156118c9576118c861217d565b5b60006118d7878288016117d7565b94505060206118e887828801611801565b93505060406118f9878288016117d7565b925050606061190a87828801611801565b91505092959194509250565b60006020828403121561192c5761192b61217d565b5b600061193a84828501611801565b91505092915050565b6000602082840312156119595761195861217d565b5b600061196784828501611816565b91505092915050565b600080600080600060a0868803121561198c5761198b61217d565b5b600061199a8882890161182b565b95505060206119ab888289016117ec565b94505060406119bc88828901611816565b93505060606119cd88828901611816565b92505060806119de8882890161182b565b9150509295509295909350565b600060208284031215611a0157611a0061217d565b5b6000611a0f84828501611840565b91505092915050565b611a2181612020565b82525050565b611a3081612032565b82525050565b6000611a43602383611dbd565b9150611a4e8261218f565b604082019050919050565b6000611a66602a83611dbd565b9150611a71826121de565b604082019050919050565b6000611a89603983611dbd565b9150611a948261222d565b604082019050919050565b6000611aac602183611dbd565b9150611ab78261227c565b604082019050919050565b6000611acf602c83611dbd565b9150611ada826122cb565b604082019050919050565b6000611af2601a83611dbd565b9150611afd8261231a565b602082019050919050565b6000611b15601e83611dbd565b9150611b2082612343565b602082019050919050565b6000611b38602a83611dbd565b9150611b438261236c565b604082019050919050565b6000611b5b601b83611dbd565b9150611b66826123bb565b602082019050919050565b6000611b7e601083611dbd565b9150611b89826123e4565b602082019050919050565b611b9d8161207a565b82525050565b6000602082019050611bb86000830184611a18565b92915050565b6000604082019050611bd36000830185611a18565b611be06020830184611a18565b9392505050565b6000606082019050611bfc6000830186611a18565b611c096020830185611a18565b611c166040830184611b94565b949350505050565b6000604082019050611c336000830185611a18565b611c406020830184611b94565b9392505050565b6000602082019050611c5c6000830184611a27565b92915050565b60006020820190508181036000830152611c7b81611a36565b9050919050565b60006020820190508181036000830152611c9b81611a59565b9050919050565b60006020820190508181036000830152611cbb81611a7c565b9050919050565b60006020820190508181036000830152611cdb81611a9f565b9050919050565b60006020820190508181036000830152611cfb81611ac2565b9050919050565b60006020820190508181036000830152611d1b81611ae5565b9050919050565b60006020820190508181036000830152611d3b81611b08565b9050919050565b60006020820190508181036000830152611d5b81611b2b565b9050919050565b60006020820190508181036000830152611d7b81611b4e565b9050919050565b60006020820190508181036000830152611d9b81611b71565b9050919050565b6000602082019050611db76000830184611b94565b92915050565b600082825260208201905092915050565b6000611dd98261207a565b9150611de48361207a565b9250827fffffffffffffffffffffffffffffffffffffffffffffffffffffffffffffffff03821115611e1957611e186120f0565b5b828201905092915050565b6000611e2f8261207a565b9150611e3a8361207a565b925082611e4a57611e4961211f565b5b828204905092915050565b6000808291508390505b6001851115611e9f57808604811115611e7b57611e7a6120f0565b5b6001851615611e8a5780820291505b8081029050611e9885612182565b9450611e5f565b94509492505050565b6000611eb38261207a565b9150611ebe8361207a565b9250611eeb7fffffffffffffffffffffffffffffffffffffffffffffffffffffffffffffffff8484611ef3565b905092915050565b600082611f035760019050611fbf565b81611f115760009050611fbf565b8160018114611f275760028114611f3157611f60565b6001915050611fbf565b60ff841115611f4357611f426120f0565b5b8360020a915084821115611f5a57611f596120f0565b5b50611fbf565b5060208310610133831016604e8410600b8410161715611f955782820a905083811115611f9057611f8f6120f0565b5b611fbf565b611fa28484846001611e55565b92509050818404811115611fb957611fb86120f0565b5b81810290505b9392505050565b6000611fd18261207a565b9150611fdc8361207a565b9250817fffffffffffffffffffffffffffffffffffffffffffffffffffffffffffffffff0483118215151615612015576120146120f0565b5b828202905092915050565b600061202b8261205a565b9050919050565b60008115159050919050565b600061204982612020565b9050919050565b6000819050919050565b600073ffffffffffffffffffffffffffffffffffffffff82169050919050565b6000819050919050565b600060ff82169050919050565b600069ffffffffffffffffffff82169050919050565b60006120b28261207a565b91507fffffffffffffffffffffffffffffffffffffffffffffffffffffffffffffffff8214156120e5576120e46120f0565b5b600182019050919050565b7f4e487b7100000000000000000000000000000000000000000000000000000000600052601160045260246000fd5b7f4e487b7100000000000000000000000000000000000000000000000000000000600052601260045260246000fd5b7f4e487b7100000000000000000000000000000000000000000000000000000000600052603260045260246000fd5b600080fd5b60008160011c9050919050565b7f7765206e65656420617070726f76616c20746f2075736520796f757220746f6b60008201527f656e730000000000000000000000000000000000000000000000000000000000602082015250565b7f776520646f6e74206861766520706572736d697373696f6e20746f207573652060008201527f796f75722066756e647300000000000000000000000000000000000000000000602082015250565b7f7768792061726520796f7520747279696e6720746f206c69717569646174652060008201527f61206c6f616e2074686174206973206865616c7468793f3f3f00000000000000602082015250565b7f776520646f6e74206861766520656e6f756768206f66207468617420746f6b6560008201527f6e00000000000000000000000000000000000000000000000000000000000000602082015250565b7f796f752063616e277420626f72726f77207468652073616d6520746f6b656e2c60008201527f2073696c6c7920676f6f73650000000000000000000000000000000000000000602082015250565b7f796f7520646f6e74206861766520656e6f756768206d6f6e6579000000000000600082015250565b7f796f752073686f756c6420616464206d6f726520636f6c6c61746572616c0000600082015250565b7f7765206d6179206f72206d6179206e6f74206861766520676f6e6520696e736f60008201527f6c76656e74206c6d616f00000000000000000000000000000000000000000000602082015250565b7f796f7520646f6e74206861766520656e6f75676820746f6b656e730000000000600082015250565b7f6e6f742076616c696420746f6b656e7300000000000000000000000000000000600082015250565b61241681612032565b811461242157600080fd5b50565b61242d8161203e565b811461243857600080fd5b50565b61244481612050565b811461244f57600080fd5b50565b61245b8161207a565b811461246657600080fd5b50565b61247281612084565b811461247d57600080fd5b50565b61248981612091565b811461249457600080fd5b5056fea26469706673582212201bea365378402b6bd0a9dd5c5abe62dd22f35809644bf21f5485d0b62a50623a64736f6c63430008060033",
  "linkReferences": {},
  "deployedLinkReferences": {}
}